:10003E0000A8C0003F065B4F666D7D077F6F00080E
:10004E004001414809BF86DBCFE6EDFD87FFEF009B
:10005E001025103110321033303208310832203171
:10006E0010261031403108260825082308210816CD
:10007E000815081308F6152021102210231824083D
:10008E00231021102220211016102140152021109E
:10009E0022102310230824082510211024182308C9
:1000AE002510220823082308220822302320251099
:1000BE003110271826082620251025082608271077
:1000CE00260825082340241824082510261025105C
:1000DE0024082308222017101708160815101610CA
:1000EE002180F1F5FAF478F70010160623042304A4
:1000FE0026062306000A2306000A2306000A160611
:10010E00230423042606230600082306000A2306DA
:10011E0000102206000123062606000622062306EC
:10012E0016060006220623062106220623062506AB
:10013E00230600062506230622062306220621068E
:10014E00160A0002150616062106220623062206A8
:10015E0021060006220616060010F0F5FCF45AF7EA
:10016E00160413042104260435040004310400048B
:10017E00140411041604240431040004350400048C
:10018E001504120417042504310400043504000478
:10019E001104150423082202230222042104000460
:1001AE00160413042104260435040004310400044B
:1001BE00140411041604240431040004220421083A
:1001CE00210412041504250431040004270400043C
:1001DE002504250200022204150412041704150436
:1001EE00000416041304210426043504000431040B
:1001FE00000414041104160424043104000435040C
:10020E0000041504120417042504310400043504F7
:10021E0000041104150423082202230222042104DF
:10022E0000041604130421042604350400043104CA
:10023E0000041404110416042404310400042204DE
:10024E00210421041204150425043302340233045C
:10025E0032043104320233023102320231022502FB
:10026E00230222021508210822082108210821084C
:10027E002308210821082108220823042204220829
:10028E002108230800081508210822082108210842
:10029E002204230422082108210821042104220813
:1002AE002204230422082108210800081508210829
:1002BE0022082108210822042304220821082110E3
:1002CE002108220423042208210823080008150807
:1002DE0021082208210821082204230422082108CB
:1002EE0021102208220423042208210821080008D4
:1002FE0022082108250821082108210425042208A6
:10030E002108211022082104210421082504230498
:10031E0023080008210825082508210821082104A2
:10032E002504220821082110220821042104210875
:10033E002208210800082208210825082108210882
:10034E00250425042208210821102208210821084D
:10035E002504230423080008220821082508210863
:10036E002108210425042208210821102208210435
:10037E0021042108220821103202330232043104F2
:10038E00270431040004350400043504000432044B
:10039E003104310400043504000435040004320431
:1003AE0031043104000432043104310400043204F7
:1003BE0031043104000432043102320231042504C6
:1003CE003104000431040004320800043204000435
:1003DE003104270431043704350432043104270470
:1003EE002504220432040004330400043204000401
:1003FE00320431043104250431043304320431044F
:10040E0031040004260400043504000435040004FD
:10041E0032043104250400043504000435040004BC
:10042E002504230422042504310432043304250454
:10043E00310433043204250431043304320233020E
:10044E00320231022504310422042504310425042C
:10045E003204250433042504320431042504220415
:10046E002104240425043104320400043104000460
:10047E003104000432040004310800081508210874
:10048E002208210821082108230821082108210813
:10049E002208220423042208210823080008150834
:1004AE0021082208210821082204230422082108F9
:1004BE0021082104210422082204230422082108F1
:1004CE002108000815082108220821082108220405
:1004DE0023042208210821102108220423042208C3
:1004EE0021082308000815082108220821082108E0
:1004FE0022042304220821082110220822042304A6
:10050E0022082108210800082208210825082108B0
:10051E002108210425042208210821102208210483
:10052E00210421082508230800082108250825088C
:10053E00210821082104250422082108211022085F
:10054E00210421042108220821080008220821087C
:10055E002508210821082504250422082108211038
:10056E002208210821082504230423080008220854
:10057E002108250821082108210425042208210824
:10058E002110220821042104210822082108210813
:10059E0021082108320233023204310427043104C7
:1005AE00000435040004350400043204310431041F
:1005BE00000435040004350400043204310431040F
:1005CE0000043204310431040004320431043104D5
:1005DE0000043204310232023104250431043104A4
:1005EE0000043208000432040004310427043104EC
:1005FE00370435043204310427042504220432045E
:10060E0000043304000432040004320431043104C3
:10061E002504310433043204310431040004260469
:10062E0004043504000435040004320432042504A5
:10063E0004043504000435040004250423042204B4
:10064E002504310432043304250431043304320406
:10065E0025043104330432023302320231022504FE
:10066E003104220425043104250432042504330404
:10067E002504320431042504220421042404250413
:10068E003104320400043104000431040004320445
:10069E00000431100010250821082108210425042A
:1006AE0022082108211022082104210421082508EE
:1006BE0023080008210825082508210821082104FF
:1006CE0025042208210821102208210421042108D2
:1006DE0022082108000822082108250821082108DF
:1006EE0025042504220821082110220821082108AA
:1006FE0025042304230800082208210825082108C0
:10070E002108210425042208210821102208210491
:10071E002104210822082108210821082108F0F7C8
:1014B400022700640131000130000241FFF90245B6
:1014C400000002290000022500000222FFF8023277
:0214D400000016
:101F1500E4F52D752C07F52E752F01F53DF53E746D
:101F250034253EF8760A053EE53E7002053D640916
:081F3500453D70EB75310C22F3
:100E2500753D00753E01AF3E74352FF8E6FE74340E
:100E35002FF8A606053EE53E7002053D6408453DD2
:100E450070E4AF8A7E00121CE3052FE52F701A05AA
:100E55002E8016C3E53B953AFFC3E53C953BB507A8
:100E65002D052FE52F7002052E121CA18E278F2828
:100E7500E528252FFFE527352EFE121CE3121CA1C0
:100E85007C007D03120AB8ED240BF53C80C50542B4
:100E9500E542700205410523E52370020522D3E5ED
:100EA500429400E541648094804053AE41AF427C5A
:100EB500007D05120AB88E298F2AC3E5429406E5FE
:100EC5004164809480402EE5429410E5416480940D
:100ED50080400675410075420FAE41AF427C007DF2
:100EE50005120AB88C458D46E5464545700DF54514
:100EF5007546058006854145854246854634C3E5E8
:100F05002A9404E529648094804007752900752A90
:100F15000322E52A45297005F525F52622E52A64EB
:100F25000145297006F52575260122E52A64024545
:100F3500297006F52575260322E52A6403452970DF
:070F450005F52575260722C2
:101F8D0012201D752455752BFA7BFF7A01796E751C
:101F9D004C05754DC0754EF0AD2BAF24121BA87FAF
:041FAD0001021F65A9
:052099007F03021F653A
:1013BE007F03121D35BF0121E5334532700B121F1D
:1013CE008D7532007533018010E53364014532703E
:1013DE0008122099E4F532F533E5316535605B7F0F
:1013EE0005121D35BF010A0531E531B40E03753105
:1013FE000B7F02121D35BF010A1531E531B40A0308
:10140E0075310DE4FF121D35EF64017048E52A6455
:10141E00034529703DF53D753E027434253EF87640
:10142E000A053EE53E7002053D6408453D70EBE45D
:10143E00F529F52AF541F542801BE531B53516E45F
:10144E00FF121D35BF0103853030E4FF121D35BF7D
:10145E000103853030C3E52A9404E5296480948025
:10146E004008752900752A038037E52A452970063C
:10147E00F525F526802BE52A640145297007F5250B
:10148E00752601801CE52A640245297007F525752D
:10149E002603800DE52A640345297005F52575267A
:0614AE0007AF26022087B3
:1012AB00E53165357003021352E4FF121DBFBF0118
:1012BB0041C3E52A9401E529648094804031753D52
:1012CB0000753E027434253EF8760A053EE53E7005
:1012DB0002053D6405453D70EBE52A152A700215A4
:1012EB002974FB2542F54274FF3541F54180038596
:1012FB0030307F01121DBFEF64017066C3E52A9485
:10130B0002E529648094804056753D00753E02AF1E
:10131B003E74342FF8E6B5310674342FF8760A058F
:10132B003EE53E7002053D6408453D70E274FE25C6
:10133B002AF52A74FF3529F52974F62542F54274EE
:10134B00FF3541F541801BE531B53516E4FF121D24
:10135B00BFBF01038530307F01121DBFBF01038565
:10136B003030C3E52A9404E52964809480400875E5
:10137B002900752A038037E52A45297006F525F5DE
:10138B0026802BE52A640145297007F52575260172
:10139B00801CE52A640245297007F5257526038014
:1013AB000DE52A640345297005F525752607AF263B
:0313BB0002208786
:101B4400E535B40A0485313022E535B40B1AE531A4
:101B5400B40B0375300BE531B40C0375300FE5316C
:101B6400640D703F75301022E535B40C19E531B4BD
:101B74000B0375300FE531B40C0375300CE531B44B
:101B84000D2175300E22E535B40D18E531B40B0383
:101B9400753010E531B40C0375300EE531B40D0326
:041BA40075300D2269
:10119500E5316535602A120E25121B44AF26122053
:1011A50087AD2CAF2D12205F85374A85384B8539A1
:1011B5004C853A4D853B4EAB36AD30AF34021FD131
:1011C500E531653560030212AAAD2CAF2D12205F03
:1011D500AE22AF237C277D10120AB87C007D0A124F
:1011E5000AB8AB05C003AE22AF237C037DE8120A23
:1011F500B87C007D0A120AB8AB05AE22AF237C008D
:101205007D64120AB87C007D0A120AB8AA05AE22CE
:10121500AF237C007D0A120AB87C007D0A120AB849
:101225008D4D8A4C8B4BD04AAE22AF23EE3395E0E1
:10123500FDFC7B807A9679987800121D7BE47B0A09
:10124500FAF9F8121D7BAF03C007AE22AF23EE33C8
:1012550095E0FDFC7B407A42790F7800121D7BE416
:101265007B0AFAF9F8121D7BAF03AD07C005AE2264
:10127500AF23EE3395E0FDFC7BA07A8679017800FB
:10128500121D7BE47B0AFAF9F8121D7BAE22AF230F
:101295007C007D0A120AB88D4ED005D007121FD1E9
:0612A5007FFF12208722EA
:03209E000213BE6C
:0320A1000212AB7D
:101E7C00121FF1121F1512119512000E121FB17FB5
:101E8C0098121EB97BFF7A2079A17F04121A4F7B1E
:101E9C00FF7A1179957F03121A4F7BFF7A20799E76
:0D1EAC007F07121A4F12208D121E3E80FB80
:092056008B88898C88898F8889A8
:1014D60052007A8686008686008686008686008684
:0914E600860086860041006F09B2
:03002B000220812F
:0620810053BCEFD20C324B
:020C790015560E
:100C7B00200C03020E22C20C90006EE0B40900405F
:100C8B0003020E04900C96F8282873020CDD020C5C
:100C9B00B1020CC3020CEF020CB1020CC3020D0625
:100CAB00020CB1020CC3AFBDEFFEADBE7C00E42D58
:100CBB00FFEC3E900070803CAFBDEFFEADBE7C0004
:100CCB00E42DFFEC3E900072F0A3EFF075510102A2
:100CDB000E0AAFBDEFFEADBE7C00E42DFFEC3E90E7
:100CEB0000748010AFBDEFFEADBE7C00E42DFFECB9
:100CFB003E900076F0A3EFF0020E0AAFBDEFFEAD13
:100D0B00BE7C00E42DFFEC3E900078F0A3EFF0905A
:100D1B000078E0FEA3E07807CEC313CE13D8F9A872
:100D2B0056F6C394065013A856E675F003A4247A1E
:100D3B00F582E43400F583E014F090006FE014F0DA
:100D4B006003020E0A7409F0A856E4F6A856E6FFF3
:100D5B00C394064003020E0AEF75F003A4247AF540
:100D6B0082E43400F583E0C39480502AE6FF75F0EB
:100D7B0003A4247BF582E43400F583E0D394804014
:100D8B0040EF75F003A4247CF582E43400F5837402
:100D9B0001F0F552802BA856E6FF75F003A4247BD7
:100DAB00F582E43400F583E0C394805014EF75F0C2
:100DBB0003A4247CF582E43400F5837402F07552AD
:100DCB0001A856E6FF75F003A4247AF582E43400FB
:100DDB00F583E0FEEF75F003A4247BF582E4340089
:100DEB00F583EEF0E675F003A4247AF582E4340083
:100DFB00F5837486F006020D5790006E74FFF09029
:100E0B00006EE0D39408400374FFF090006EE00492
:070E1B00F090205693F5BC96
:030E220005562250
:02202C00155647
:09202E00A856A652E4F552E6FFA3
:0320370005562229
:02203A00155639
:09203C00A856A651E4F551E6FF97
:032045000556221B
:101EB9008F9D75BC88439720D2AD90004574FFF083
:101EC900A3740CF0A37479F0A374FFF0A37420F049
:101ED900A3742CF0A374FFF0A37420F0A3743AF058
:011EE90022D6
:070003007B017A00797022F5
:101D3500C3EF64809480403BD3EF64809485503337
:101D4500EFFD3395E0FC90007C75F003ED120C6718
:101D5500EC75F003A42583F583E0FE90007C75F017
:101D650003ED120C67EC75F003A42583F583E4F00D
:051D7500AF06227F0310
:011D7A002246
:041F3D0015561556CA
:101F4100122068A856A60608A607A856E6FE08E6C7
:0F1F5100FF4E600BEF24FFFFEE34FFFE122071F6
:051F60000556055622A4
:101FB10053B1EF43B2101220A7E4F5D975DA49D233
:101FC100DE90003F74FFF0A3741FF0A3743DF02274
:081ACC008E4D8F4E8C4F8D50A2
:101AD400122068EF4E7066AF50AE4F122071C3E50E
:101AE4004E940AE54D9400404BE47B18FAF9F890C3
:101AF400003E120C4B120BA5C006C007AE4DAF4EF4
:101B0400AB07AA06E4F9F8D007D006120BA5AB0779
:101B1400AA06AFF9EFFEADE97C00E42DFFEC3ECF61
:101B24002BCF3AAD07FCAF03AE0212200CD2D84340
:0F1B3400DA0180061220A753DAFE7F02227F0318
:011B4300227F
:0C002E00122068EF4E7002FF227F0122BA
:10159D00E4F5809000A7E0FFB40800505F9015B10E
:1015AD00F82828730215C90215CF0215D50215DBCF
:1015BD000215E10215EB0215F50215FFC2A3C2A239
:1015CD008016C2A3C2A2801AC2A3C2A2801EC2A349
:1015DD00C2A28022C2A3D2A2C2A1C2A08020C2A355
:1015ED00D2A2C2A1D2A08016C2A3D2A2D2A1C2A061
:1015FD00800CC2A3D2A2D2A1D2A08002D2A3C3EFEB
:10160D006480948850299000A7E0FF3395E0FE7424
:10161D009E2FF58274003EF583E0FF3395E0FE7456
:10162D00422FF58274003EF583E493F580801E9081
:10163D0000A7E0FFB408133395E0FE749E2FF582EA
:10164D0074003EF583E0F5808003E4F58090009D05
:10165D00E0FF9000A7E004FEF0D3EF6480F8EE64A5
:10166D0080984014E0D36480948850047408F0226C
:09167D0090009CE09000A7F0220F
:101FF100E4F5937594FF5395F043960F90002A747E
:0B200100FFF0A37415F0A3749DF02203
:09205F0090009CEFF0A3EDF022CB
:101FD10090009EEFF0A3EDF0A3EBF0A3E54AF0A390
:101FE100E54BF0A3E54CF0A3E54DF0A3E54EF0225F
:062087009000A6EFF0221C
:1014EF000155004900A994940094940094940041EC
:0314FF0000A81E24
:02107200155611
:1010740020B2069000A9E014F020B3069000ACE082
:1010840014F02097069000AFE014F09000A8E0144C
:10109400F06003021192741EF0A856E4F6A856E616
:1010A400FFC3648094834003021192EF3395E0FE02
:1010B4009000A975F003EF120C67EE75F003A425F8
:1010C40083F583E0C3948050399000AA75F003EF50
:1010D400120C67EE75F003A42583F583E0D39480A6
:1010E400405AE6FF3395E0FE9000AB75F003EF1233
:1010F4000C67EE75F003A42583F5837401F0F555B0
:10110400803AA856E6FF3395E0FE9000AA75F003F6
:10111400EF120C67EE75F003A42583F583E0C39406
:101124008050199000AB75F003EF120C67EE75F068
:1011340003A42583F5837402F0755501A856E6FFD0
:10114400FD3395E0FC9000A975F003ED120C67ECFB
:1011540075F003A42583F583E0FE9000AA75F003DF
:10116400ED120C67EC75F003A42583F583EEF0EF24
:101174003395E0FE9000A975F003EF120C67EE754D
:0E118400F003A42583F5837494F0060210A1F5
:03119200055622DD
:0220480015562B
:09204A00A856A655E4F555E6FF81
:032053000556220D
:10000E0090003074FFF0A37420F0A37448F09000B9
:0D001E002D74FFF0A37410F0A37472F02293
:101DBF00EF600764016003BF0233EFFD3395E0FC72
:101DCF009000AB75F003ED120C67EC75F003A425D2
:101DDF0083F583E0FE9000AB75F003ED120C67EC1A
:0F1DEF0075F003A42583F583E4F0AF06227F038C
:011DFE0022C2
:101502004100000A4100290A41006D0A040E000050
:1015120000000116004600670000FFFF8FFFC10AAE
:10152200C105C108C101C10B60240005FF000AFF0B
:10153200000AFF000AFF000AFF000AFF000AFF007C
:101542000AFF000AFF000AFF000AFF000AFF000A62
:101552006036002AFF000AFF000AFF20A4FF000AEB
:10156200FF20A4FF000AFF20A4FF000AFF000AFFD9
:10157200000AFF20A4FF20A4FF20A4FF20A4FF0054
:0A1582000AFF000AFF000AFF000A3A
:01000A0022D3
:0320A4007F002298
:101CEE00438E805389F07BE07A287901780090004A
:101CFE003E120C4B121D7BEFF404F58A7BE07A2822
:101D0E007901780090003E120C4B121D7BC3E49FAC
:101D1E00FFE49EFE74019DFDE49CFC7808120C37D6
:071D2E008F8CD28CD2A92298
:03000B00021C5381
:041C5300C0E0C0D05D
:101C5700D5080A75084C300A020516D20AA2037283
:101C6700045032150AE50A702C850C0AD207300990
:101C770017E50D6007150D438F018019538FFEC2BD
:101C8700B5D51811C209800D050BE50BD394064095
:051C970004D206C203A7
:051C9C00D0D0D0E032C1
:101C0000300B47C20B90003E120C4B7810120C3771
:101C10008E538F54900003E0FEA3E0FFE4FCFD7BB5
:101C200019FAF9F8120B1AC006C007AE53AF54AB3D
:101C300007AA06E4F9F8D007D006121D7B78031234
:101C40000C37900065EEF0A3EFF0900065E0FEA386
:021C5000E0FFB3
:011C5200226F
:09206800900067E0FEA3E0FF22F6
:09207100900067EEF0A3EFF022ED
:10200C0090006BEEF0A3EFF0900069ECF0A3EDF014
:01201C0022A1
:0320A700C2B4229E
:03003B000217FDAC
:1017FD00C0E0C083C082C0D075D000C004C005C099
:03180D0006C0070B
:1018100030DF04C2DF807D30DA04C2DA807630D96E
:101820003DC2D9AFFBEFFEADEB7C00E42DFFEC3EFB
:1018300020000E900001F0A3EFF075DB11D20080C4
:1018400053FE900001E0FCA3E0FDC3EF9DFFEE9C82
:10185000A3F0A3EFF075DB00C200D20B803630D8C6
:1018600033C2D8900067E07002A3E06022B2B49067
:101870000069E0FEA3E0F5EAEEF5FAA3E0FEA3E0DE
:10188000FF90006AE02FF0900069E03EF08005C212
:04189000B453DAFE75
:10189400D007D006D005D004D0D0D082D083D0E0F9
:0118A4003211
:06208D00121CEED2AF228E
:1019C4003004047F0180027F002009047E0180022C
:1019D4007E00EE5F6074E517C395095068300236E7
:1019E400750D01E517131313541FAB19AA1AA91B7C
:1019F400F582758300120A24FFE517540704FEEFED
:101A0400A806088002C333D8FC30D70575180380B4
:101A14002F751801802AAB19AA1AA91B75F002E5C3
:101A240017A4F58285F083120A24F50DE51775F0E5
:101A340002A429F9EA35F0FA900001120A24F518F3
:0A1A44000517D20922C204438F10D7
:011A4E002275
:10168600900000E014F0701F740AF0D20590002953
:10169600E014F07012740AF0D20890006DE014F0B5
:1016A6007005740AF0D20190002AA3E0FAA3E0F9CB
:1016B600120C7390002DA3E0FAA3E0F9120C7390BC
:1016C6000039A3E0FAA3E0F9120C73900045A3E0F9
:1016D600FAA3E0F9120C73900054A3E0FAA3E0F920
:1016E600120C7390005DA3E0FAA3E0F9120C73905C
:1016F6000005A3E0FAA3E0F9120C7390004BA3E0F7
:10170600FAA3E0F9120C73EF600C90001DA3E0FA47
:10171600A3E0F9120C7390004EA3E0FAA3E0F912CD
:101726000C73EF600C900020A3E0FAA3E0F9120C12
:1017360073900051A3E0FAA3E0F9120C73EF600C6A
:0D174600900023A3E0FAA3E0F9120C732237
:1018A50090003FA3E0FAA3E0F9120C73900042A365
:1018B500E0FAA3E0F9120C73900033A3E0FAA3E079
:1018C500F9120C73900008A3E0FAA3E0F9120C7367
:1018D500900030A3E0FAA3E0F9120C73EF600C90CE
:1018E5000011A3E0FAA3E0F9120C73900036A3E00F
:1018F500FAA3E0F9120C73EF600C900017A3E0FA5D
:10190500A3E0F9120C73900048A3E0FAA3E0F912E2
:101915000C73EF600C90001AA3E0FAA3E0F9120C27
:101925007330060EC206900026A3E0FAA3E0F91272
:031935000C73220E
:101DFF0090000BA3E0FAA3E0F9120C7390003CA340
:101E0F00E0FAA3E0F9120C73EF600C900014A3E05A
:101E1F00FAA3E0F9120C73900057A3E0FAA3E0F9CC
:0F1E2F00120C7390005AA3E0FAA3E0F9020C73AF
:101EEA00AF11AE10AD0FAC0E900060120C5B9000FB
:101EFA0064E516F0E4F511F510F50FF50EF51690F8
:0B1F0A00000EA3E0FAA3E0F9020C7344
:101E3E00300705C2071219C4300A05C20A121686E7
:101E4E00300505C2051218A5300805C208121DFF7F
:101E5E00300105C201121EEAE5112401F511E43527
:0E1E6E0010F510E4350FF50FE4350EF50E22D9
:101A4F008B478A488949EFB40C005070901A62F89E
:101A5F00282873021A86021A8B021A90021A95020C
:101A6F001A9A021A9F021AA4021AA9021AAE021A8D
:101A7F00B3021AB8021ABD90000580359000088095
:101A8F003090000B802B90000E802690001180214B
:101A9F00900017801C900014801790001A801290ED
:101AAF00001D800D9000208008900023800390007F
:0D1ABF0026E547F0A3E548F0A3E549F02235
:07207A007B017A007960226E
:100F4C0000C400DC00F701060126014A0172018889
:100F5C0001B801EE020B024B029302E40310037082
:100F6C0003DC04160497052605C800DC00F7011500
:100F7C000126014A0172019F01B801EE022A024BBF
:100F8C00029302E4033F037003DC04550497052627
:100F9C0005C8067D00F701150137014A0172019F52
:100FAC0001D201EE022A026E029302E4033F03A473
:100FBC0003DC045504DD057505C8067D07490106EB
:100FCC000126014A015D018801B801EE020B024BBA
:100FDC00029302BA0310037003DC0416049705266F
:100FEC000575062006E007B80126014A0172018842
:100FFC0001B801EE022A024B029302E403100370C3
:10100C0003DC04550497052605C8062006E007B83E
:10101C0008AA014A0172019F01B801EE022A026E70
:10102C00029302E4033F037003DC045504DD052640
:10103C0005C8067D06E007B808AA09B9015D018854
:10104C0001B801D2020B024B029302BA03100370D7
:10105C0003A40416049705260575062006E0074927
:06106C00082D092D0A4DBC
:10158C004D008F0300000000000000000000000070
:061753008F478D488B4911
:1017590012002EEF60037F0122E549D39400400671
:10176900E54994114028E549D394174006E5499481
:1017790021401BE549D394274006E5499431400EA1
:10178900E549D394375007E547C394F950037F03DC
:1017990022E549603DC4540F75F007A4FDACF0E59E
:1017A9004775F015A42DFFE5F03CFEE54954077C8B
:1017B900002FFFEC3EFEEF25E0FFEE33FE74622FB3
:1017C900F58274E63EF583E493F54B740193F54C89
:1017D9008005E4F54BF54CAF4A7E007C017D77121C
:1017E9000A51AD481C120A63AD07AC06AF4CAE4BAB
:0317F900121ACCF5
:0117FC0022CA
:04072E0015561556F1
:1007320012002EEF70047F0180027F0090008FE094
:10074200FEB402047D0180027D00ED5F6003020AB7
:100752001FEEB4030AE490008DF0A3F0020A1F908A
:100762000090E0FFB4F3047E0180027E00EFB4F15A
:10077200047F0180027F00EF4E603E900092E0FE17
:1007820075F06484FFEE75F00A8475F00A84ADF0AA
:10079200E075F00A84ABF0754A0A900091E02407F4
:1007A200F54B90008CE0FEC4540F240AF54C754DB5
:1007B2000AEE5407F54E121FD1900090E0FFB4F3F9
:1007C200047E0180027E00EFB4F2047F0180027F8A
:1007D20000EF4E7003020878900092E0FD7C007EEC
:1007E200177F70120A63A856A607E6F975F002A4ED
:1007F200FFC390009BE09F90009AE095F05070E05C
:10080200FEA3E0FF7C007D0B120A51E9FBFD120AF8
:1008120063A85608A60790009AE475F001120B042B
:10082200FED3E5F09BEE94004018A85608E624F9A2
:10083200FFE47EF0A807088005CEC313CE13D8F9D3
:10084200801FA85608E6FF740F7E00A807088005DF
:10085200C333CE33CED8F97804CEA2E713CE13D861
:10086200F8A85608F6A85608E6FF1220878007E483
:1008720090009AF0A3F0900096E0FEA3E0FFC390F0
:100882000099E09F900098E09E4003020A1912002E
:100892002EEF6003020A1F900093E0FBA3E0FAA38D
:1008A200E0F9900098E0FEA3E0F5828E83120A241C
:1008B200FFD3943750030209B4EF241024FC50797B
:1008C200604524FE700302095F1470030209752457
:1008D2000260030209A3900093E0FBA3E0FAA3E005
:1008E200F9900098E475F001120AEE85F082F58322
:1008F200120A24900091F0900099E004F070989010
:100902000098E004F08090900093E0FBA3E0FAA34B
:10091200E0F9900098E475F001120AEE85F082F594
:1009220083120A24900092F0900099E004F0706E15
:10093200900098E004F0020899900093E0FBA3E095
:10094200FAA3E0F9900098E475F001120B0485F027
:1009520082F583120A24900090F002089990009880
:10096200E475F001120AEEAFF090008DF0A3EFF003
:1009720002089990008DE0FEA3E0FF4E6012900005
:1009820098EEF0A3EFF0E490008DF0A3F002089946
:10099200900099E004F07006900098E004F00208DC
:1009A20099900099E004F07006900098E004F0023B
:1009B2000899900096E0FEA3E0FFC3900099E09FA3
:1009C200900098E09E5056900093E0FBA3E0FAA3BB
:1009D200E0F9900098E475F001120B0485F082F5BD
:1009E20083120A2490008CF0900091E0FFA3E0FDB6
:1009F200A3E0FBA3E0FAA3E0F9900098E475F0010C
:100A0200120B0485F082F583120A24F54A90008CB9
:0D0A1200E0FB121753800690008F7403F074
:050A1F000556055622FA
:0F201D0090004274FFF0A37407F0A3742EF0221A
:101BA80090008FE0B4030DE4900098F0A3F0A3F048
:101BB800A3F0C20DE54E6004900090F0EF60049031
:101BC8000092F0ED6004900091F0E94A60047F0112
:101BD80080027F00E54D454C60047E0180027E0056
:101BE800EE5F6013900093EBF0A3EAF0A3E9F0A393
:081BF800E54CF0A3E54DF022DD
:101F6500BF02047E0180027E00BF01047D01800264
:101F75007D00ED4EFEBF03047D0180027D00ED4E28
:081F8500600590008FEFF022CF
:0620930090008FE0FF2227
:03000000021938AA
:0C193800787FE4F6D8FD75815602197F17
:100A2400BB010CE58229F582E5833AF583E0225087
:100A340006E92582F8E622BBFE06E92582F8E222D1
:0D0A4400E58229F582E5833AF583E49322EB
:100A5100EF8DF0A4A8F0CF8CF0A428CE8DF0A42EB9
:020A6100FE2273
:100A6300BC000BBE0029EF8DF084FFADF022E4CC77
:100A7300F875F008EF2FFFEE33FEEC33FCEE9DEC40
:100A8300984005FCEE9DFE0FD5F0E9E4CEFD22ED86
:100A9300F8F5F0EE8420D21CFEADF075F008EF2FD0
:100AA300FFED33FD4007985006D5F0F222C398FDC1
:050AB3000FD5F0EA225E
:100AB800C2D5EC30E709B2D5E4C39DFDE49CFCEE59
:100AC80030E715B2D5E4C39FFFE49EFE120A63C364
:100AD800E49DFDE49CFC8003120A6330D507C3E45F
:060AE8009FFFE49EFE22C8
:100AEE00C5F0F8A3E028F0C5F0F8E5821582700293
:060AFE001583E038F02230
:100B0400A3F8E0C5F025F0F0E582158270021583A4
:060B1400E0C838F0E82201
:100B1A00E88FF0A4CC8BF0A42CFCE98EF0A42CFC7A
:100B2A008AF0EDA42CFCEA8EF0A4CDA8F08BF0A4F8
:100B3A002DCC3825F0FDE98FF0A42CCD35F0FCEB57
:100B4A008EF0A4FEA9F0EB8FF0A4CFC5F02ECD391C
:0F0B5A00FEE43CFCEAA42DCE35F0FDE43CFC2289
:100B690075F008758200EF2FFFEE33FECD33CDCC43
:100B790033CCC58233C5829BED9AEC99E5829840C6
:100B89000CF582EE9BFEED9AFDEC99FC0FD5F0D6A3
:100B9900E4CEFBE4CDFAE4CCF9A88222B800C1B9CD
:100BA9000059BA002DEC8BF084CFCECDFCE5F0CB0B
:100BB900F97818EF2FFFEE33FEED33FDEC33FCEB44
:100BC90033FB10D703994004EB99FB0FD8E5E4F9FF
:100BD900FA227818EF2FFFEE33FEED33FDEC33FCEC
:100BE900C933C910D7059BE99A4007EC9BFCE99AE0
:100BF900F90FD8E0E4C9FAE4CCFB2275F010EF2F25
:100C0900FFEE33FEED33FDCC33CCC833C810D70724
:100C19009BEC9AE899400AED9BFDEC9AFCE899F85F
:0E0C29000FD5F0DAE4CDFBE4CCFAE4C8F922F2
:101D7B00C2D5E830E70FB2D5E4C39BFBE49AFAE493
:101D8B0099F9E498F8EC30E717B2D5121DB1120BA4
:101D9B00A5E4C39BFBE49AFAE499F9E498F8800371
:101DAB00120BA530D50DE4C39FFFE49EFEE49DFD11
:041DBB00E49CFC2286
:100C3700E86010ECA2E713FCED13FDEE13FEEF13D3
:040C4700FFD8F022C0
:100C4B00E493FC740193FD740293FE740393FF22EF
:0C0C5B00ECF0A3EDF0A3EEF0A3EFF0220C
:0C0C6700A42582F582E5F03583F5832298
:060C73008A838982E4730C
:101CA100AC1CAD1DAE1EAF1F7810EC4D4E4F700435
:101CB1007CA57DA5C3EC13FCED13FDEE13FEEF1324
:101CC100FF5010EC64CCFCED644CFDEE644EFEEF75
:101CD10064CEFFD8DF8C1C8D1D8E1E8F1FEE547FAE
:0D1CE100FE228E1C8F1D74A5F51EF51F221E
:10194400021E7CE493A3F8E493A34003F68001F21F
:1019540008DFF48029E493A3F85407240CC8C333A4
:10196400C4540F4420C8834004F456800146F6DF73
:10197400E4800B01020408102040809014B4E47E3B
:10198400019360BCA3FF543F30E509541FFEE49368
:10199400A360010ECF54C025E060A840B8E493A32F
:1019A400FAE493A3F8E493A3C8C582C8CAC583CA5A
:1019B400F0A3C8C582C8CAC583CADFE9DEE780BE12
:01159C00004E
:00000001FF
